{
  "_format": "hh3-artifact-1",
  "contractName": "Calculator",
  "sourceName": "contracts/Calculator.sol",
  "abi": [
    {
      "inputs": [
        {
          "internalType": "int256",
          "name": "_initialResult",
          "type": "int256"
        }
      ],
      "stateMutability": "nonpayable",
      "type": "constructor"
    },
    {
      "anonymous": false,
      "inputs": [
        {
          "indexed": false,
          "internalType": "string",
          "name": "operation",
          "type": "string"
        },
        {
          "indexed": false,
          "internalType": "int256",
          "name": "a",
          "type": "int256"
        },
        {
          "indexed": false,
          "internalType": "int256",
          "name": "b",
          "type": "int256"
        },
        {
          "indexed": false,
          "internalType": "int256",
          "name": "result",
          "type": "int256"
        }
      ],
      "name": "CalculationPerformed",
      "type": "event"
    },
    {
      "inputs": [
        {
          "internalType": "int256",
          "name": "a",
          "type": "int256"
        },
        {
          "internalType": "int256",
          "name": "b",
          "type": "int256"
        }
      ],
      "name": "add",
      "outputs": [
        {
          "internalType": "int256",
          "name": "",
          "type": "int256"
        }
      ],
      "stateMutability": "nonpayable",
      "type": "function"
    },
    {
      "inputs": [
        {
          "internalType": "int256",
          "name": "a",
          "type": "int256"
        },
        {
          "internalType": "int256",
          "name": "b",
          "type": "int256"
        }
      ],
      "name": "dev",
      "outputs": [
        {
          "internalType": "int256",
          "name": "",
          "type": "int256"
        }
      ],
      "stateMutability": "nonpayable",
      "type": "function"
    },
    {
      "inputs": [],
      "name": "getLastResult",
      "outputs": [
        {
          "internalType": "int256",
          "name": "",
          "type": "int256"
        }
      ],
      "stateMutability": "view",
      "type": "function"
    },
    {
      "inputs": [
        {
          "internalType": "int256",
          "name": "a",
          "type": "int256"
        },
        {
          "internalType": "int256",
          "name": "b",
          "type": "int256"
        }
      ],
      "name": "mul",
      "outputs": [
        {
          "internalType": "int256",
          "name": "",
          "type": "int256"
        }
      ],
      "stateMutability": "nonpayable",
      "type": "function"
    },
    {
      "inputs": [
        {
          "internalType": "int256",
          "name": "a",
          "type": "int256"
        },
        {
          "internalType": "int256",
          "name": "b",
          "type": "int256"
        }
      ],
      "name": "sub",
      "outputs": [
        {
          "internalType": "int256",
          "name": "",
          "type": "int256"
        }
      ],
      "stateMutability": "nonpayable",
      "type": "function"
    }
  ],
  "bytecode": "0x6080604052348015600e575f5ffd5b5060405161047b38038061047b833981016040819052602b916097565b5f818155604080516080808252600b908201526a125b9a5d1a585b1a5e995960aa1b60a0820152602081018390528082019290925260608201839052517fd0002682a5826ea10df3544376c523a68050e415f8cd281788de40fa582685e79181900360c00190a15060ad565b5f6020828403121560a6575f5ffd5b5051919050565b6103c1806100ba5f395ff3fe608060405234801561000f575f5ffd5b5060043610610055575f3560e01c806392093dd614610059578063a5f3c23b1461006e578063adefc37b14610081578063bbe93d9114610094578063fc22815d146100a7575b5f5ffd5b5f545b60405190815260200160405180910390f35b61005c61007c366004610283565b6100ba565b61005c61008f366004610283565b610123565b61005c6100a2366004610283565b610181565b61005c6100b5366004610283565b6101e2565b5f6100c582846102b7565b5f8190556040805160808082526008908201526720b23234ba34b7b760c11b60a08201526020810186905290810184905260608101919091525f51602061036c5f395f51905f529060c0015b60405180910390a1505f545b92915050565b5f61012e82846102de565b5f819055604080516080808252600b908201526a29bab13a3930b1ba34b7b760a91b60a08201526020810186905290810184905260608101919091525f51602061036c5f395f51905f529060c001610111565b5f61018c8284610304565b5f819055604080516080808252600e908201526d26bab63a34b83634b1b0ba34b7b760911b60a08201526020810186905290810184905260608101919091525f51602061036c5f395f51905f529060c001610111565b5f815f036102295760405162461bcd60e51b815260206004820152601060248201526f4469766973696f6e206279207a65726f60801b604482015260640160405180910390fd5b6102338284610333565b5f819055604080516080808252600890820152672234bb34b9b4b7b760c11b60a08201526020810186905290810184905260608101919091525f51602061036c5f395f51905f529060c001610111565b5f5f60408385031215610294575f5ffd5b50508035926020909101359150565b634e487b7160e01b5f52601160045260245ffd5b8082018281125f8312801582168215821617156102d6576102d66102a3565b505092915050565b8181035f8312801583831316838312821617156102fd576102fd6102a3565b5092915050565b8082025f8212600160ff1b8414161561031f5761031f6102a3565b818105831482151761011d5761011d6102a3565b5f8261034d57634e487b7160e01b5f52601260045260245ffd5b600160ff1b82145f1984141615610366576103666102a3565b50059056fed0002682a5826ea10df3544376c523a68050e415f8cd281788de40fa582685e7a2646970667358221220b8bf8cbcb932b793ca38fa18c44ae9632d6a87a92895e5ae943f66436502733364736f6c634300081c0033",
  "linkReferences": {},
  "deployedLinkReferences": {},
  "immutableReferences": {},
  "inputSourceName": "project/contracts/Calculator.sol",
  "buildInfoId": "solc-0_8_28-711c4381a509ef0b8cab8f773d82d729de5c80ca"
}